:100000000C9434000C9449000C9449000C94490061
:100010000C9449000C9449000C9449000C9449003C
:100020000C9449000C9449000C9449000C9449002C
:100030000C9449000C9449000C9449000C9449001C
:100040000C9449000C9449000C9449000C9449000C
:100050000C9449000C9449000C9449000C944900FC
:100060000C9449000C94490011241FBECFEFD8E036
:10007000DEBFCDBF11E0A0E0B1E0EEE4F1E002C0F0
:1000800005900D92A630B107D9F70E945C000C9440
:10009000A5000C94000094EA9093BC009091BC00E1
:1000A00097FFFCCF8093BB0084E88093BC008091D5
:1000B000BC0087FFFCCF089580E284B91092B9009C
:1000C00088E48093B80087E68093C4001092C5004E
:1000D00086E08093C20088E18093C100C4E8D4E93F
:1000E00010E28AE90E944B001092BB00C093BC0052
:1000F0008091BC0087FFFCCF8BE90E944B00C0932E
:10010000BC008091BC0087FFFCCF8091BB00D093E6
:10011000BC009091BC0094FDFCCF823370F0E0E015
:10012000F1E0819118163CF49091C00095FFFCCF4E
:100130008093C600F6CF15B9D4CF15B88FE39CE9EC
:0E0140000197F1F700C00000CCCFF894FFCF7C
:06014E0046495245000085
:00000001FF
